:020000040800F2
:10000000400A00209D010008398B0008A521000846
:10001000358B000819080008D9A700080000000067
:1000200000000000000000000000000025A60008FD
:100030004108000800000000F1A4000829A60008FB
:10004000B7010008B7010008B7010008B7010008B0
:10005000B7010008B701000845080008B70100080B
:10006000B7010008B701000869080008B7010008D7
:10007000B7010008B7010008B7010008B701000880
:10008000B7010008B7010008ED070008B701000834
:10009000B7010008B7010008B7010008B701000860
:1000A000B7010008B7010008B7010008B701000850
:1000B000B7010008B7010008B7010008B701000840
:1000C000B7010008B7010008B7010008B701000830
:1000D000B7010008B7010008B7010008B701000820
:1000E000B7010008B7010008B7010008B701000810
:1000F000B7010008B7010008B7010008B701000800
:10010000B7010008B7010008B7010008B7010008EF
:10011000B7010008B7010008B7010008B7010008DF
:100120001D080008B701000829080008B7010008E9
:1001300035080008B7010008B7010008B70100083A
:10014000B7010008B7010008B7010008B7010008AF
:10015000B7010008B7010008B7010008B70100089F
:10016000B7010008B7010008B7010008B70100088F
:10017000B7010008B7010008B7010008000000003F
:10018000B7010008B7010008DFF80CD000F064F9EF
:100190000048004749A80008400A00200648804758
:1001A00006480047FEE7FEE7FEE7FEE7FEE7FEE75C
:1001B000FEE7FEE7FEE7FEE7D5A600088901000896
:1001C0002DE9F05F0546002092469B46884606468C
:1001D000814640241BE0284641464746224600F01F
:1001E000CDF853465A46C01A914110D311461846CD
:1001F000224600F0B4F82D1A67EB01084F4622465C
:100200000120002100F0ABF817EB00094E41201E41
:10021000A4F10104DFDC484631462A464346BDE8E6
:10022000F09F2DE9FE4F81EA030404F0004421F021
:10023000004100944FF0000B23F0004350EA01040A
:100240005ED052EA03045BD0C3F30A54C1F30A55EB
:100250002C44A4F2F3340194A0FB0254C1F3130123
:1002600041F48011C3F3130343F4801301FB0244F0
:1002700000FB034E840A970A44EA815447EA8357F5
:10028000A4FB076802958D0A05FB07854FEA932CAE
:1002900004FB0C542705029D4FEA065847EA16371F
:1002A000B5EB08056EEB070C870E920E47EA811737
:1002B00042EA8312A7FB0201B6EB0B0164EB0004D8
:1002C0002B0D43EA0C335E1844EB1C50DA465146C2
:1002D000E7FB0201C5F313044FEA0B3343EA14535F
:1002E0004FEA0432019C43EA0603A4F10C04029491
:1002F000009CCDE900B400F060F803B0BDE8F08FD9
:1003000000200146F9E7C1F30A5210B5C1F3130109
:1003100040F2FF3341F480119A4201DA002010BD0F
:1003200040F233439A42A2F2334203DC524200F0DD
:1003300025F810BD904010BD00F0004230F00040A4
:100340000AD0C10D01F56071C0F3160042EA0151F7
:10035000C208400711437047002001467047202A19
:1003600004DB203A00FA02F1002070479140C2F10C
:10037000200320FA03F3194390407047202A04DB3E
:10038000203A21FA02F00021704721FA02F3D0400E
:10039000C2F12002914008431946704710B5141E5F
:1003A00073F1000408DA401C41F1000192185B412E
:1003B0001A4301D120F0010010BD2DE9F04D924605
:1003C0009B4611B1B1FA81F202E0B0FA80F220321C
:1003D0009046FFF7C4FF04460F4640EA0A0041EA90
:1003E0000B0153465A46084313D0114653EA010005
:1003F00019D0C8F140025046FFF7C0FF05460E462F
:10040000504659464246FFF7AAFF084305D001204F
:1004100004E020463946BDE8F08D0020054346EA59
:10042000E0762C4337430A986305E40AA0EB080002
:100430000022FD0A44EA47540A3002D50020014652
:10044000E9E7010510196941DDE90845001969412D
:10045000BDE8F04DA2E700001CB50948009009482E
:1004600001900546009C06E0E06840F0010394E836
:10047000070098471034AC42F6D3FFF789FE00001E
:1004800050D3000870D30008B0B540F60004C4F2A1
:100490000204A4F5806528464021012201F016F9E6
:1004A0000A2001F021F828464021002201F00EF92F
:1004B00020464021002201F009F904F58060402126
:1004C000002201F003F920464021012201F0FEF84C
:1004D0004FF4967001F008F820464021002201F008
:1004E000F5F820464FF40061012201F0EFF80020FA
:1004F00000F020F8022000F01DF8002000F01AF8AB
:10050000002000F017F8002000F014F8012000F09F
:1005100011F8002000F00EF8002000F00BF8A720E2
:1005200000F008F8204640210122BDE8B04001F06B
:10053000CDB8000070B540F60044C4F20204054690
:1005400020464021002201F0C1F80A200AF046F9B5
:1005500004F54066EA0930464FF4004101F0B6F870
:1005600020464021012201F0B1F80A200AF036F9B4
:1005700020464021002201F0A9F80A200AF02EF9B5
:10058000C5F3801230464FF4004101F09FF8204639
:100590004021012201F09AF80A200AF01FF92046B2
:1005A0004021002201F092F80A200AF017F9C5F361
:1005B000401230464FF4004101F088F820464021B7
:1005C000012201F083F80A200AF008F920464021B0
:1005D000002201F07BF80A200AF000F9C5F30012AE
:1005E00030464FF4004101F071F8204640210122CD
:1005F00001F06CF80A200AF0F1F8204640210022B0
:1006000001F064F80A200AF0E9F8C5F3C0023046A8
:100610004FF4004101F05AF820464021012201F038
:1006200055F80A200AF0DAF820464021002201F0AD
:100630004DF80A200AF0D2F8C5F3800230464FF494
:10064000004101F043F820464021012201F03EF82C
:100650000A200AF0C3F820464021002201F036F8B3
:100660000A200AF0BBF8C5F3400230464FF40041BF
:1006700001F02CF820464021012201F027F80A2041
:100680000AF0ACF820464021002201F01FF80A20B1
:100690000AF0A4F805F0010230464FF4004101F0E1
:1006A00015F820464021012201F010F80A20BDE88B
:1006B00070400AF093B8000070B540F60004C4F230
:1006C0000204054620464021002200F0FFFF0220E0
:1006D0002E0AFFF72FFF3046FFF72CFFE8B2FFF797
:1006E00029FF20464021012200F0F0FF04F580544C
:1006F00020464021012200F0E9FF0A200AF06EF8AE
:10070000204640210022BDE8704000F0DFBF00001D
:1007100070B540F21800C2F2000090ED001B53ECDF
:10072000102B51EC110BFFF77CFDFFF7ECFD40F6B1
:100730000004C4F202040546060E204640210022B1
:1007400000F0C4FF0420FFF7F5FE3046FFF7F2FE8D
:10075000C5F30740FFF7EEFEC5F30720FFF7EAFEFB
:10076000E8B2FFF7E7FE20464021012200F0AEFF8D
:1007700004F5805420464021012200F0A7FF0A2002
:100780000AF02CF8204640210022BDE8704000F01D
:100790009DBF000070B540F60004C4F20204054697
:1007A00020464021002200F091FF05202E0AFFF78D
:1007B000C1FE3046FFF7BEFEE8B2FFF7BBFE2046A3
:1007C0004021012200F082FF04F5805420464021A0
:1007D000012200F07BFF0A200AF000F820464021A9
:1007E0000022BDE8704000F071BF000080B540F20B
:1007F000AC30C2F2000000F085F940F2F430C2F2F1
:10080000000000F07FF940F23C40C2F20000BDE879
:10081000804000F077B90000FEE7000040F244504D
:10082000C2F2000000F0CEBC40F2E440C2F2000090
:1008300000F0C8BC40F28440C2F2000000F0C2BC2C
:100840007047000043F61440C4F201000168C90774
:1008500006D00121016040F23A00C2F200000170AE
:10086000012000F057BE000043F61440C4F201001E
:100870000168C90658BF70471021016040F2390075
:10088000C2F20000012101707047000072B600BF83
:10089000FEE70000B3F5804F03461DD1B0B553F815
:1008A00022C00020CCF6F0700CEA000E91E8310076
:1008B000D1F818C040EA0E0040EA0410C96840EAC6
:1008C000052040EA0C0040EA0141BDE8B0400020AC
:1008D00043F82210704700BF6FF07041002043F8CA
:1008E000221070472DE9F04F83B00B68024650F894
:1008F000230001F1240B20F0010042F82300D1E98C
:1009000002C0D1E900E301908869D1E9049A02901C
:10091000C86BD1E9077600909BE83008D1F83080A9
:1009200052F82E008021CFF6F0710840BCF1080F7C
:1009300008BF43F040030199194341EA090141EA24
:100940000A01394331432143294341EA0B01029B08
:1009500041EA08011943009B1943084340EA0C018E
:10096000002042F82E1003B0BDE8F08F70B5D1E939
:1009700000C3D1E902E44CEA031343EA0E23D1E9B0
:10098000045643EA04430024CFF6F074896904EB6B
:1009900005552B43FE36194341EA066100EB8202FE
:1009A0000020516070BD00007047000070B581B03C
:1009B0000022009290F83C20012A03D1022108462F
:1009C00001B070BD0E6801220A2E80F83C2009D3C8
:1009D000B2B25200D0F800E012FA86F21E3A0EF1DE
:1009E0000C0305E0D0F800E006EB46020EF1100320
:1009F0004FF0070C1D680CFA02F4A5431D608D68CA
:100A00001C6805FA02F222431A60496806290FD8C9
:100A100001EB81014A1F71461F2351F8345F934057
:100A200025EA03030B60B3B203FA02F214E000BF3D
:100A300001EB81030C29B2B204D8714651F8304F52
:100A4000233B03E0714651F82C4F413B1F259D404D
:100A500024EA05059A400D600B6842F2043CC4F29A
:100A6000010C1A43ACF541739E450A603BD1122E2E
:100A700006D1DCF8001041F48001CCF8001032E01F
:100A800026F0010110292ED1DCF80010102E41F4BF
:100A90000001CCF8001026D140F21001C2F2000192
:100AA00009684DF68362C4F21B32A1FB0212910C5D
:100AB00001EB8101490000910099A1B10099013930
:100AC0000091009979B1009901390091009951B1D3
:100AD000009901390091009929B1009901390091DB
:100AE00000990029EAD1002180F83C10084601B0A5
:100AF00070BD000070470000704700000068C06CC7
:100B00007047000070B50446006806684568B10784
:100B100017D515F0200114D0216CC90603D4216C1F
:100B200041F400712164816811F0405F02D1217E9F
:100B3000002969D02046FFF7DDFF20686FF0120121
:100B40000160710714D515F0800111D0216CC90620
:100B500003D4216C41F400512164816811F4401FD9
:100B600022D02046FFF720FF20686FF00C010160C3
:100B7000F10706D015F040011CBF01685FEAC171A2
:100B800034D1B1060FD515F0806108BF70BD616C1E
:100B90006FF0200541F00201616405602046FFF717
:100BA000ABFF2068056070BD816B11F4401F02D05F
:100BB00081684905D5D441684905D2D4816811F0CE
:100BC000405FCED1217E0029CBD1416821F0800148
:100BD0004160206C20F480502064206CC005C0D49B
:100BE000206C40F001002064BBE700BF206C40F4A3
:100BF00080302064204600F0D1F820686FF00101B9
:100C00000160B106BFD4CEE7C16A11F4700F03D002
:100C1000816849053FF58EAF416821F020014160B0
:100C2000206C20F480702064206CC0043FF582AFFB
:100C3000206C40F0010020647CE70000002804BF25
:100C40000120704710B50446006C00283ED0206C8F
:100C5000C00645D4206C41F202118843023042F2B2
:100C600004312064C4F20101086820F440300860B7
:100C70000A6894E809101A43D4F810E00A60416841
:100C8000012321F4807141604168C0F6007341EA9C
:100C90000E214160416821F040714160416841EAA4
:100CA0000C014160816821F400618160E168826823
:100CB00011438160A16A8268994222F07062826069
:100CC000826813D122F0405119E000BF204600F0A5
:100CD00067F80020606484F83C00206CC006B9D539
:100CE0000120002184F83C1010BD00BF1143816039
:100CF000816821F040518160E16A8268114381601E
:100D0000816821F0020181608168227E94F82030A0
:100D100041EA42018160416883B141F40061416070
:100D200041684EF2000221F460414160616ACFF6F1
:100D3000FF72436802EB4131194301E021F4006185
:100D40004160C16A40F2000C21F47001C162E269A5
:100D50006169CFF6F07CC36A0CEB02521A43C2629F
:100D6000826822F40072826094F83020836843EA3B
:100D700042228260826822F480628260826842EA53
:100D80008121816000206064216C012262F30101F5
:100D90002164002184F83C1010BD00007047000061
:100DA00070B586B00446006842F20021C4F2010129
:100DB00000268842CDE90466CDE9026601964DD051
:100DC00042F20011C4F20101884277D042F20001E0
:100DD000C4F20101884240F0C48043F6300000961E
:100DE000C4F20200416941F480714161416901F43A
:100DF0008071009100990096016841F00101016045
:100E0000006801A900F00100009000980420019002
:100E10000320CDE902060020C4F2020000F086FBA8
:100E200046F21040C4F2020040F284456030C2F243
:100E300000054FF48061C5E9000605F110004FF48C
:100E400000624FF400534FF4807C80E80E104FF4A2
:100E50000030C5E90266C5E9080671E043F63000D6
:100E60000096C4F20200416941F480614161416928
:100E700001F48061009100990096016841F0200121
:100E80000160006801A900F0200000900098C020D7
:100E900001900320CDE902060020C4F2020000F513
:100EA000A05000F043FB40F2445546F21040C2F21D
:100EB0000005C4F202004FF080612DE043F63000DF
:100EC0000096C4F20200416941F400714161416938
:100ED00001F40071009100990096016841F0010150
:100EE0000160006801A900F001000090009808204E
:100EF00001900320CDE902060020C4F2020000F0B8
:100F000015FB46F21040C4F2020040F2E4453030D6
:100F1000C2F200054FF000714FF480624FF400639D
:100F20004FF4005C4FF4807E28606960AE60EE6034
:100F30002A616B61C5F818C0C5F81CE02E626E62AC
:100F4000284600F01FFA002818BFFFF79FFC122068
:100F500000210022A563AC6300F040FC122000F0E9
:100F60002BFC06B070BD000070B5044600680D464D
:100F70008268520544BF80685FEAC05038D400F0F0
:100F8000ABFB21680A68920749D40646681C3CD02E
:100F9000DDB90868800721D5086880073FD4086854
:100FA00080071BD50868800739D40868800715D5E5
:100FB0000868800733D4086880070FD50868800761
:100FC000E7D52CE00868800729D400F085FB801B5A
:100FD0002168A842F6D908688007F3D4206C40F055
:100FE00004002064002084F83C00032070BD00BF92
:100FF000206C40F020002064002084F83C00012098
:1010000070BD00BF0868800709D40868800706D44F
:10101000086880075CBF08685FEA8070F2D56FF0EF
:1010200012000860206C40F400702064886810F0A2
:10103000405F01D0002070BD207E0028FAD1C86A30
:1010400010F4700F02D088684005F3D4206C20F4AF
:1010500080702064206CC004ECD4206C40F001004F
:101060002064002070BD000010B581B00021009107
:1010700090F83C10012903D1022001B010BD00BF3F
:101080000468012180F83C10214651F8083FDB0735
:1010900029D10B684DF6836243F001030B6040F2E7
:1010A0001003C2F200031B68C4F21B32A3FB02232D
:1010B0009A0C02EB42020092009AA2B1009A013A05
:1010C0000092009A7AB1009A013A0092009A52B1C5
:1010D000009A013A0092009A2AB1009A013A0092CD
:1010E000009A002AEAD10A68036CD2070CD143F0B7
:1010F0001001016400F1440101200A6810430860F6
:10110000002001B010BD00BF40F2017223EA0202CC
:1011100002F5807202646268520504D5026C0123F4
:1011200063F30D320264026C4FF0000E0023D20410
:1011300044BF426C22F0060342F2043C436480F850
:101140003CE06FF02200C4F2010C2060DCF80000EB
:10115000C0060DD0ACF5417084422BD14FF604503F
:10116000CFF6FF705CF8000010F0405F22D125E060
:1011700042F20000C4F20100844217D042F2002083
:10118000C4F2010084420DD042F20010C4F201000A
:1011900084420FD1DCF80000C00607D0ACF58270A5
:1011A000844207D1DCF80000C00603D4086810F0C0
:1011B000405F03D0002001B010BD00BF4FF0804061
:1011C0009BE70000F0B581B004460020009040F29B
:1011D0001000C2F200000268D4E9166048F2B513AC
:1011E00037680821C1F64E3381403942A2FB0325FE
:1011F0000CD0226813685B0708D5136823F004033A
:101200001360B160616D41F00101616501218140B0
:10121000394208D022685269120604D5B160616D66
:1012200041F00201616504218140394208D0226801
:101230001268920704D5B160616D41F004016165E7
:1012400010218140394217D020680268120713D557
:10125000B16002680168520308D4C90508D4016866
:1012600021F008010160216C21B905E008033FD499
:10127000216C09B120468847E16D202000FA01F277
:101280003A4241D020680368DB063DD5B26094F84D
:1012900035300268052B1BD122F01602026042692C
:1012A00022F080024261226C0AB9A26C1AB1026873
:1012B00022F0080202603F208840B060012084F8DC
:1012C0003500216D0020002984F8340052D157E008
:1012D0000168520310D4C90512D4016821F010012D
:1012E0000160012084F83500002084F8340007E014
:1012F000A16C0029BED1BFE7080301D4616C00E0F6
:10130000E16B09B120468847606DC8B3606DC007C6
:101310002ED0052084F835002068A90A026822F042
:1013200001020260009A01328A4200921AD80268D1
:10133000D20717D0009A01328A42009212D802686E
:10134000D2070FD0009A01328A4200920AD802686E
:10135000D20707D0009A01328A42009202D802686E
:10136000D207DFD1012084F83500002084F8340052
:10137000E16C29B1204601B0BDE8F040084700BF4C
:1013800001B0F0BD2DE9F041044600F0A5F9ECB143
:101390000546022084F835000020216884F83400D6
:1013A000086820F00100086021680868C00711D0B3
:1013B00000F092F9401B0528F6D9032520230320CD
:1013C000636584F83550BDE8F08100BF0120BDE8B9
:1013D000F08100BF086848F23F02CFF21002D4E962
:1013E000013500EA020C04F10C0898E8C10143EA57
:1013F0000C032B431843D4E9072E304338431043E2
:10140000626A40EA0E00042A40EA08031CD1206BFD
:10141000D4E90A2E40EA0E00184308604869BEF17C
:10142000000F20F0030040EA020040F0040C11D04D
:10143000B8F5005F36D0B8F1000F45D1022A46D08A
:10144000012A3BD032B942E00B60486920F0070026
:1014500040EA020C01F0F8004AF6AB221038CAF656
:10146000AA22A0FB02231A094DF2D423C1F814C00A
:10147000C0F600039A5C40F2FF335F284FF03F0054
:1014800021EA030100FA02F088BF0431C4E9161210
:101490008860002301250020636584F83550BDE88D
:1014A000F08100BF032AD5D8012540230120DFE8C1
:1014B00002F0030E030500BF82E700BFAEF1C0706B
:1014C000B0FA80F0400904E0032A04D3C2D1CEF37D
:1014D00000600028BED0012540230120636584F808
:1014E0003550BDE8F0810000B0B5044600F0F4F8D6
:1014F000054640F20400C2F200000078611C18BFEB
:10150000044400BF00F0E8F8401BA042FAD3B0BD8D
:101510007047000043F61441C4F201010A68024218
:1015200014BF08607047FFF7F3BF00002DE9F04FCC
:1015300082B000F13E4707F1FF77860546EA97271C
:1015400041F60046C4F20206082243F6004EB042BD
:1015500008BF0722C4F2010E072F38BF3A46002603
:1015600000274FF00008009209E000BF08F10108D1
:101570000237B8F1100F06F1040600F0A3800D68E1
:10158000012202FA08F415EA0409EFD0D1F804B0F8
:1015900003220BF0030CACF10105BA40012D6FEAF8
:1015A000020A0FD88268CD6802EA0A02BD402A43C7
:1015B00082604268A243CBF3001404FA08F4224389
:1015C000426005E0BCF1030F02D14FF0030C1EE0B6
:1015D000C2688C6802EA0A02BC402243BCF1020FD6
:1015E000C26014D16FF0030202EA58020244D2F83A
:1015F00020C006F01C040F230D69A3402CEA03034E
:10160000A5402B431362D1F804B00BF0030C026821
:101610000CFA07F302EA0A021A431BF4403F026085
:10162000A4D0002243F644030192C4F202031A68D4
:101630004FF6084C42F480421A601A68CFF6FF7CDD
:1016400002F480420192019A28F00302724452F897
:101650000C3006F00C050F24AC40A343009C04FAA8
:1016600005F52B4342F80C30DEF808204B6842EABF
:10167000090543F60C4CDC0258BF22EA0905CEF8F6
:101680000850C4F2010CDCF800209C0242EA090573
:1016900058BF22EA0905CCF80050DEF804209C036C
:1016A00042EA090558BF22EA0905CEF80450DEF8DF
:1016B0000020DB0342EA090558BF22EA0905CEF8FB
:1016C000005053E702B0BDE8F08F0000002A08BFC9
:1016D000090481617047000040F23C60C2F20000E2
:1016E0000068704740F2040040F23C61C2F2000022
:1016F000C2F2000100780A681044086070470000D8
:1017000080B543F60040C4F20200016841F4007164
:101710000160016841F480610160016841F48071F9
:101720000160032000F086F80F2000F005F800F0BB
:1017300027F8002080BD000070B540F20406C2F218
:10174000000640F210013278C2F200014FF47A73C1
:101750000968B3FBF2F20446B1FBF2F1084600F06F
:10176000E9FB0F2C4FF0010508D838B94FF0FF30D6
:1017700021460022002500F031F87460284670BD33
:1017800082B0002043F640010190C4F202014A6891
:1017900042F480424A604A6802F480420192019A0F
:1017A0000090086840F080500860086800F08050A1
:1017B0000090009802B07047002848BF704700F0C2
:1017C0001F01012202FA01F11C2202EAD0004EF2AE
:1017D0000012CEF2000281507047000010B54EF6A4
:1017E0000C5CCEF2000CDCF80030C3F3022E8EF05D
:1017F0000704042C28BF0424BEF103034FF0FF3E6E
:101800000EFA04F438BF0023A14399400EFA03F303
:101810009A43114300F00F0200F160430901043ABA
:1018200003F564436244002848BF02F10C031970B9
:1018300010BD00004EF60C51CEF200010A684FF6C2
:10184000FF031A4060F30A2242F0806040F0FD700E
:1018500008607047002804BF012070472DE9F0415F
:1018600043F60808C4F202080446D8F8F8030D4607
:1018700000F00700884207D288F8F853D8F8F80338
:1018800000F00700A84277D12068810717D54107EB
:1018900005D5D8F8001041F4E051C8F80010010750
:1018A00005D5D8F8001041F46041C8F80010D8F808
:1018B0000010A26821F0F0011143C8F80010C00721
:1018C00040D1D8F8F80300F00700A84207D988F8FB
:1018D000F853D8F8F80300F00700A8424CD120686C
:1018E000410707D5D8F80010E26821F4E051114310
:1018F000C8F80010000708D5D8F80000216920F4C6
:10190000604040EAC100C8F8000000F07DF8D8F857
:1019100000104BF6F622C1F30311C0F60002515C31
:1019200040F2100220FA01F140F20800C2F2000079
:101930000068C2F200021160FFF7FEFE0020BDE861
:10194000F08100BF6068811E022907D258F8081C88
:1019500089015CBF0120BDE8F08111E0012807D1B9
:1019600058F8081C89035CBF0120BDE8F08107E03E
:1019700058F8081C890703D40120BDE8F08100BF96
:10198000D8F8001021F003010843C8F80000FFF761
:10199000A3FE064641F28837D8F80000616800F0DF
:1019A0000C00B0EB810F8CD0FFF796FE801BB84285
:1019B000F2D90320BDE8F08140F2100043F608019F
:1019C000C2F20000C4F20201006809684BF6063258
:1019D000C1F38221C0F60002515CC840704700008C
:1019E00040F2100043F60801C2F20000C4F2020106
:1019F000006809684BF60632C1F34231C0F60002B6
:101A0000515CC8407047000010B543F60404C4F2AE
:101A10000204606800F00C0142F200400829C0F2A4
:101A2000F40007D0042918BF10BD41F20020C0F215
:101A30007A0010BD216801F03F0221682368490245
:101A4000C3F3881106D4A1FB00010023FEF7B8FB05
:101A500007E000BF41F20020C0F27A004843B0FB2B
:101A6000F2F021680222C1F3014102EB4101B0FB17
:101A7000F1F010BD002804BF012070472DE9F041AE
:101A800082B00446007843F60006C007C4F202069E
:101A90000CD0B06800F00C00042840F08180306861
:101AA000800303D56068002800F06A8120788007F1
:101AB0001BD5B06810F00C0F09D0B06800F00C0016
:101AC000082840F087807068400200F18380306809
:101AD000800703D5E068012840F052813068216911
:101AE00020F0F80040EAC10030602078000713D4ED
:101AF000207840072AD4A569002D00F03C81B06809
:101B000000F00C00082840F0A180012D40F0108169
:101B1000012002B0BDE8F0816069002840F20000B9
:101B2000C4F2472000F07E800121C0F8801EFFF73C
:101B3000D3FD0546706F8007DAD4FFF7CDFD401B5B
:101B40000228F7D9032002B0BDE8F081306C5FEACB
:101B5000C0080AD400200190306C40F080503064FE
:101B6000306C00F080500190019847F20007C4F2F9
:101B700000073868C00547D4386840F48070386082
:101B8000FFF7AAFD054600BF3868C0053CD4FFF743
:101B9000A3FD401B0228F7D9032002B0BDE8F08165
:101BA000B06800F00C00082803D1706840023FF5CF
:101BB00076AF6068B0F5803F07D0B0F5A02F40F059
:101BC0009B80306840F480203060306840F4803082
:101BD00030609BE0E06800285CD00020C4F2472021
:101BE00001210160FFF778FD054600BF30688007DE
:101BF0003FF574AFFFF770FD401B0228F6D90320B4
:101C000002B0BDE8F08100BFA068012805D005281A
:101C100054D1306F40F004003067306F40F0010065
:101C2000306755E00021C0F8801EFFF755FD0546DE
:101C3000706F80077FF55CAFFFF74EFD401B0228F9
:101C4000F6D9032002B0BDE8F08100BF0027C4F23E
:101C5000472700203866FFF73FFD022D05460DD1CE
:101C60003068800140F19080FFF736FD401B02286C
:101C70004FF00300F4D902B0BDE8F0813068800174
:101C800079D5FFF729FD401B02284FF00300F5D955
:101C9000F1E700BF0020C4F2472000210160FFF7F8
:101CA0001BFD0546306880077FF51FAFFFF714FD69
:101CB000401B02284FF00300F4D9DCE7316F002805
:101CC00021F001013167316F21F0040131677DD0CE
:101CD000FFF702FD054641F2883700BF306F8007ED
:101CE00000F18680FFF7F8FC401BB842F6D90320CC
:101CF00002B0BDE8F08100BF3168002821F48031D6
:101D00003160316821F4802131607BD0FFF7E4FC41
:101D1000054600BF306880033FF5C8AEFFF7DCFC26
:101D2000401B6428F6D9032002B0BDE8F08100BF53
:101D30007068E16900F480028A4221D1216A00F0D2
:101D40003F028A421CD147F6C071626A0140B1EB82
:101D5000821F15D1A16A4FF6FF73C903994300F49E
:101D60004032A1F580318A420AD1E16A00F0706008
:101D7000B0EB016F04D1002002B0BDE8F08100BFDC
:101D8000012002B0BDE8F08104F11C052FCD08430D
:101D900040EA8210D9034FF6FF729143A1F58031DA
:101DA00040EA05600843706001203866FFF794FC44
:101DB000044600BF30688001DDD4FFF78DFC001BB6
:101DC00002284FF00300F5D955E700BFFFF784FC68
:101DD000054641F2883700BF306F800708D5FFF70E
:101DE0007BFC401BB8424FF00300F5D943E700BF2E
:101DF000B8F1000F3FF57FAE306C20F080503064BA
:101E000079E600BFFFF768FC054600BF3068800335
:101E10007FF54CAEFFF760FC401B64284FF00300D9
:101E2000F4D928E7002804BF0120704770B50446A4
:101E300090F8490015460E4628B9002084F848005D
:101E4000204600F01DF8206804F10801FEF74AFD65
:101E50002068A2683146FEF789FDD4E90102236BB0
:101E60002946FEF717FD2068A16850F8212042F0AE
:101E7000010240F82120012084F84900002070BDB3
:101E800040F28800C2F200000178002918BF7047B4
:101E90002DE9F04786B0012101704FF0000943F6AB
:101EA0003800CDF80490C4F20200016840F6004406
:101EB00041F0010101600068C4F2020400F0010079
:101EC0000190019801AD4FF480584FF0020A0326AB
:101ED0000C2704F500602946CDF80480CDE902A95D
:101EE00004960597FFF722FB4FF68070CDE9010AB3
:101EF00004F580602946CDE903960597FFF716FBA8
:101F00004CF23370CDE9010A20462946CDE903960B
:101F10000597FFF70BFB04F540602946CDE9018AE0
:101F2000CDE903960597FFF701FB06B0BDE8F04742
:101F300070470000411E0020B0EB116F1CBF012054
:101F400070474EF21002CEF2000251604EF623515D
:101F5000CEF20001F0230B700721906011607047F2
:101F6000002804BF0120704710B5044690F84100D6
:101F700028B9002084F84000204600F021F82420F1
:101F800084F841002068C16821F40051C1602046F6
:101F900008F0AAFB2068016921F4904101614169C0
:101FA00021F02A014161C16841F40051C160002063
:101FB0002021606484F8411084F84210606310BDF1
:101FC000016841F20000C4F20100814218BF70476D
:101FD00080B586B0002143F630020191C4F20202BE
:101FE000536900F5704043F010035361536903F0E7
:101FF00010030193019B0191136843F001031360E7
:10200000126802F001020192019A4FF4C06201923B
:102010000222CDE90221032104910721059101A9A2
:10202000FFF784FA06B0BDE8804070472DE9F04123
:10203000044690F8410020281CBF0220BDE8F08132
:102040000D4600294FF0010000F0AA801646002A34
:1020500008BFBDE8F081002060642120984684F824
:102060004100FFF739FBA684E684A1680646B1F576
:10207000805F02D12069002862D02F460025E08CC5
:10208000002861D018F1010018D0B8F1000F37D145
:10209000216808E017F8010B4860E08C0138E08403
:1020A000E08C002851D00868000673D5002FF1D1CC
:1020B00035F8020B00276FF35F20EDE7216802E09F
:1020C0000868000609D40868000606D408680006F7
:1020D0005CBF08685FEA0060F2D51FB117F8010B1A
:1020E00005E000BF35F8020B00276FF35F20486062
:1020F000E08C0138E084E08C0028E4D125E000BFCA
:10210000216800BF0868000608D4FFF7E5FA801BC5
:10211000404541D82168C868F4E700BF17B117F8F7
:10212000010B04E035F8020B00276FF35F204860D5
:10213000E08C0138E084E08C0028E3D105E000BFAA
:102140000027E08C00289DD12168086840061FD434
:10215000B8F1000F1ED018F101000FD10868400639
:1021600016D40868400613D40868400610D40868DE
:1021700040064FF00000F1D50FE000BFFFF7ACFACA
:10218000801B404508D82068C16800684006F5D526
:10219000002002E0FFF7A0FA0320202184F841107C
:1021A000BDE8F081FEE70000F0B581B040F22807FD
:1021B000C2F2000704467888B988802501FB00F642
:1021C00000200021C6F6004505F058FE788925F864
:1021D000020C9EB1042E06F0030007D326F0030183
:1021E00004392C802C802C802C80F9D130B101282E
:1021F0002C8003D002282C8018BF2C8001B0F0BDA9
:1022000080B540F22801C2F200010872B0B1C8885E
:1022100040F2401245F21053C0F2F0029842C1F869
:10222000022021D041F66312904223D14FF4F07C7A
:102230004FF4487E2B232A2014E000BFC888F022E8
:1022400045F21053C0F240129842C1F8022021D04A
:1022500041F66312904233D14FF4487C4FF4F07E44
:102260002A232B202C221FE04FF4F07C4FF4487ED1
:1022700014E000BF2C22C0F22A0245F21033C1F84C
:102280000A202B229842CA8115D14FF4A07C4FF42A
:10229000F07E0CE04FF4487C4FF4F07E4FF42C536A
:1022A0004FF428504FF430524A818881CB81A1F8F5
:1022B00002E0A1F804C00020BDE8804005F064BC45
:1022C0002C22C0F22A0245F21033C1F80A202B2238
:1022D0009842CA81EFD14FF4F07C4FF4A07EE6E73C
:1022E0002DE9F04F85B005460C46111A571B18BF53
:1022F0004FF0FF370029894648BFC1F10009012985
:10230000A3EB04004FF00102A8BF1746191B18BF2A
:102310004FF0FF310028049044BF4342049301284A
:10232000B8BF0A46049840F27E08814588BF4846F7
:10233000C6F60048029001304FF0000B00264FF027
:10234000000A0190039200BFA8B2A1B205F096FD69
:1023500040F22801C2F2000148890AF1010AA8F8F6
:102360000000049A029B088806EB09015A44CE1A21
:10237000D4BF0E463D44B2EB030BD8BF9346039A3D
:10238000C8BF1444019B1FFA8AF18B42A8F80200CF
:10239000DAD205B0BDE8F08F80B505F06FFD40F2F0
:1023A0002800C2F2000041897E22C6F60042118058
:1023B0000088508080BD0000B0B581B040F2280C8C
:1023C000C2F2000CBCF8064041F6631340F2800EE6
:1023D0009C42C6F6004E55D045F210539C4240F048
:1023E000C180BCF80C30ADF80230BDF802400133BA
:1023F000ADF80240BDF802402EF8024C040AADF8D8
:102400000240BDF80240C0B2ADF80240BDF8024043
:10241000AEF80040ADF80230BDF80230ADF8023041
:10242000BDF802302EF8023CADF80200BDF8020003
:10243000ADF80200BDF80200AEF80000BCF80E00D6
:10244000ADF80200BDF802300130ADF80230BDF841
:1024500002302EF8023C0B0AADF80230BDF8023013
:10246000ADF80230BDF80230AEF80030ADF8020031
:10247000BDF80200ADF80200BDF802002EF8020C13
:10248000A9E000BFBCF80C509CF80830BCF8024032
:10249000ADF80250002BBDF802306FEA0005ADF830
:1024A0000230BDF8023008BF60192EF8023CC0F3BC
:1024B0000723ADF80230BDF80240C0B2ADF80240CB
:1024C000BDF80240AEF80040ADF80200BDF8024091
:1024D000ADF80240BDF80240AEF80040ADF8023061
:1024E000BDF80230ADF80230BDF80230AEF8003071
:1024F000ADF80200BDF80200ADF80200BDF8020020
:10250000AEF80000BCF80E00ADF80200BDF8020005
:10251000ADF80200BDF802002EF8020C080AADF872
:102520000200BDF80230C9B2ADF80230BDF8023089
:10253000AEF80030ADF80210BDF80230ADF8023050
:10254000BDF80230AEF80030ADF80200BDF8020070
:10255000ADF80200BDF80200AEF80000ADF80210C0
:102560003CE000BFBCF80C30ADF80230BDF80230E2
:10257000ADF80230BDF802302EF8023C030AADF887
:102580000230BDF80230C0B2ADF80230BDF8023002
:10259000AEF80030ADF80200BDF80200ADF8020060
:1025A000BDF80200AEF80000BCF80E00ADF8020065
:1025B000BDF80200ADF80200BDF802002EF8020CD2
:1025C000080AADF80200BDF80200ADF80200BDF83F
:1025D0000200AEF80000C8B2ADF80200BDF802007B
:1025E000ADF80200BDF80200AEF80000BCF80A0029
:1025F0002EF8020CAEF8002001B0B0BD994288BFA1
:1026000070472DE9F04F81B08146101A0D46411CEC
:10261000802798460A04C6F6004733D00A9C4FF636
:10262000FC7201F0030A01EA02061FFA80FB03E0D4
:102630000135A8B2404534D8A9B2484605F01EFC81
:1026400040F22800C2F200004089BBF1030F27F8D6
:10265000020C09D3002000BF043081B2B1423C809B
:102660003C803C803C80F7D1BAF1000FE0D0BAF159
:10267000010F3C80DCD0BAF1020F3C8018BF3C80D7
:10268000D6E700BF40F22804C2F20004A9B24846CF
:1026900005F0F4FB01356089A9B2414527F8020C29
:1026A000F4D901B0BDE8F04F704700002DE9F04FBC
:1026B00087B00020802405903220C6F6004449F2FD
:1026C0004135FEF711FFD320ADF81A00BDF81A000E
:1026D00040F22809ADF81A00BDF81A00C2F200094C
:1026E00024F8020C2088ADF81A00BDF81A00A9F8E9
:1026F00006002088ADF81A00BDF81A00A9F80600F7
:102700002088ADF81A00BDF81A000102A9F80610D9
:102710002188ADF81A10BDF81A1041EA002081B2E4
:10272000A9F80600A94249F2413000F003810420D3
:10273000ADF81A00BDF81A0048F25252ADF81A006E
:10274000BDF81A0024F8020C2088ADF81A00BDF874
:102750001A00A9F806002088ADF81A00BDF81A0082
:10276000A9F806002088ADF81A00BDF81A00010289
:10277000A9F806102188ADF81A10BDF81A1041EA20
:10278000002188B2904208BF47F289718AB247F2AD
:1027900089708242A9F8061000F0CC80D420ADF8F0
:1027A0001A00BDF81A00ADF81A00BDF81A0024F896
:1027B000020C2088ADF81A00BDF81A00A9F806002E
:1027C0002088ADF81A00BDF81A00A9F80600208884
:1027D000ADF81A00BDF81A000102A9F80610218808
:1027E000ADF81A10BDF81A1041EA00218AB245F27C
:1027F00010308242A9F8061000F09C804FF470401F
:1028000024F8020C552020804FF20100CFF6FF7013
:10281000AA2124F8020C2180411C24F8021C522118
:102820002180811C24F8021C08210330218024F817
:10283000020C012020804FF44540ADF81A00BDF88D
:102840001A00ADF81A00BDF81A0024F8020C20880E
:10285000ADF81A00BDF81A000102A9F806104CF2F2
:102860000151CFF6FF71ADF81A10BDF81A10ADF88E
:102870001A10BDF81A1024F8021C2188ADF81A109D
:10288000BDF81A1041EA0020A9F806000520FEF75D
:102890002BFEB9F8061045F2105081424AD0B1F52E
:1028A000004F03D1A9F8060044E000BFA120ADF815
:1028B0001A00BDF81A0045F26172ADF81A00BDF8B1
:1028C0001A0045F20F5324F8020C2088ADF81A00C4
:1028D000BDF81A00A9F806002088ADF81A00BDF866
:1028E0001A000102A9F806102188ADF81A10BDF8E7
:1028F0001A1041EA002188B29042084608BF41F60A
:10290000631082B29A42A9F806000BDD45F210531B
:102910009A420FD049F241339A420BD047F2897361
:1029200006E000BF41F663139A4203D045F210332C
:102930009A421DD140F21C11CAF200010A6847F206
:10294000897722F00F020A600A684FF4007622F4B9
:1029500070620A600A6842F003020A600B6882B281
:10296000BA4208BF4FF4407643EA06020A600146C5
:1029700089B20FF2347008F037FFB9F8060045F25B
:102980000F51884240F3988345F21051884203F07A
:102990001F8347F28971884204F0628349F2413112
:1029A000884245F08080CF20ADF81A00BDF81A00AB
:1029B000C122ADF81A00BDF81A00302324F8020C29
:1029C0000020ADF81A00BDF81A104FF0100CADF849
:1029D0001A10BDF81A104FF0010E2180ADF81A2020
:1029E000BDF81A100A26ADF81A10BDF81A10218089
:1029F000ADF81A30BDF81A10ADF81A10BDF81A105B
:102A00002180ED21ADF81A10BDF81A10ADF81A109A
:102A1000BDF81A1024F8021C6421ADF81A10BDF894
:102A20001A10ADF81A10BDF81A1021800321ADF864
:102A30001A10BDF81A10ADF81A10BDF81A1021803E
:102A40001221ADF81A10BDF81A10ADF81A10BDF821
:102A50001A1021808121ADF81A10BDF81A10ADF8B6
:102A60001A10BDF81A102180E821ADF81A10BDF82F
:102A70001A10ADF81A10BDF81A1024F8021C85219E
:102A8000ADF81A10BDF81A10ADF81A10BDF81A10EA
:102A90002180ADF81AC0BDF81A70ADF81A70BDF8F3
:102AA0001A7027807A27ADF81A70BDF81A70ADF841
:102AB0001A70BDF81A702780CB27ADF81A70BDF8D0
:102AC0001A70ADF81A70BDF81A7024F8027C392714
:102AD000ADF81A70BDF81A70ADF81A70BDF81A701A
:102AE00027802C27ADF81A70BDF81A70ADF81A704F
:102AF000BDF81A702780ADF81A00BDF81A70ADF84D
:102B00001A70BDF81A7027803427ADF81A70BDF816
:102B10001A70ADF81A70BDF81A7027800227ADF848
:102B20001A70BDF81A70ADF81A70BDF81A702780C7
:102B3000F727ADF81A70BDF81A70ADF81A70BDF825
:102B40001A7024F8027C2027ADF81A70BDF81A70AC
:102B5000ADF81A70BDF81A702780EA27ADF81A7020
:102B6000BDF81A70ADF81A70BDF81A7024F8027C1E
:102B7000ADF81A00BDF81A70ADF81A70BDF81A70E9
:102B80002780ADF81A00BDF81A70ADF81A70BDF8BC
:102B90001A702780C027ADF81A70BDF81A70ADF80A
:102BA0001A70BDF81A7024F8027C1B27ADF81A7051
:102BB000BDF81A70ADF81A70BDF81A702780ADF81C
:102BC0001A20BDF81A20ADF81A20BDF81A2024F8F2
:102BD000022CADF81AE0BDF81A70ADF81A70BDF805
:102BE0001A702780C527ADF81A70BDF81A70ADF8B5
:102BF0001A70BDF81A7024F8027CADF81A30BDF8CE
:102C00001A70ADF81A70BDF81A702780ADF81A3036
:102C1000BDF81A300F27ADF81A30BDF81A302380EE
:102C2000C723ADF81A30BDF81A30ADF81A30BDF828
:102C30001A3024F8023CB723ADF81A30BDF81A3028
:102C4000ADF81A30BDF81A3023803623ADF81A30AB
:102C5000BDF81A30ADF81A30BDF81A3024F8023C2D
:102C60004823ADF81A30BDF81A30ADF81A30BDF867
:102C70001A3023803A23ADF81A30BDF81A30ADF877
:102C80001A30BDF81A3024F8023C5523ADF81A303A
:102C9000BDF81A30ADF81A30BDF81A302380B123D0
:102CA000ADF81A30BDF81A30ADF81A30BDF81A3048
:102CB00024F8023CADF81A00BDF81A30ADF81A300D
:102CC000BDF81A3023801A23ADF81A30BDF81A3037
:102CD000ADF81A30BDF81A302380B623ADF81A309B
:102CE000BDF81A30ADF81A30BDF81A3024F8023C9D
:102CF000ADF81A60BDF81A30ADF81A30BDF81A30C8
:102D00002380A223ADF81A30BDF81A30ADF81A307E
:102D1000BDF81A302380F223ADF81A30BDF81A300E
:102D2000ADF81A30BDF81A3024F8023CADF81A009C
:102D3000BDF81A30ADF81A30BDF81A3023802623BA
:102D4000ADF81A30BDF81A30ADF81A30BDF81A30A7
:102D500024F8023CADF81AE0BDF81A30ADF81A308C
:102D6000BDF81A302380E023ADF81A30BDF81A30D0
:102D7000ADF81A30BDF81A3024F8023CADF81A70DC
:102D8000BDF81A30ADF81A30BDF81A3023802A2366
:102D9000ADF81A30BDF81A50ADF81A50BDF81A50F7
:102DA00025802825ADF81A50BDF81A50ADF81A50F4
:102DB000BDF81A5025800825ADF81A50BDF81A1034
:102DC000ADF81A10BDF81A1021800E21ADF81A10B6
:102DD000BDF81A10ADF81A10BDF81A102180ADF820
:102DE0001A50BDF81A102B25ADF81A10BDF81A109C
:102DF00021805421ADF81A10BDF81A10ADF81A1040
:102E0000BDF81A102180A921ADF81A10BDF81A10CA
:102E1000ADF81A10BDF81A1021804321ADF81A1030
:102E2000BDF81A10ADF81A10BDF81A102180ADF8CF
:102E30001A60BDF81A101126ADF81A10BDF81A1054
:102E40002180ADF81A70BDF81A10ADF81A10BDF84F
:102E50001A102180ADF81A00BDF81A10ADF81A103A
:102E6000BDF81A102180ADF81A00BDF81A10ADF89F
:102E70001A10BDF81A102180ADF81A00BDF81A100A
:102E8000ADF81A10BDF81A102180ADF81A00BDF87F
:102E90001A10ADF81A10BDF81A102180E121ADF812
:102EA0001A10BDF81A10ADF81A10BDF81A1024F84F
:102EB000021CADF81A00BDF81A10ADF81A10BDF8D2
:102EC0001A1021801521ADF81A10BDF81A10ADF8AE
:102ED0001A10BDF81A1021801721ADF81A10BDF88C
:102EE0001A10ADF81A10BDF81A1021800721ADF89C
:102EF0001A10BDF81A10ADF81A10BDF81A1021807A
:102F0000ADF81A60BDF81A10ADF81A10BDF81A1015
:102F100021800621ADF81A10BDF81A10ADF81A106C
:102F2000BDF81A102180ADF81A50BDF81A10ADF88E
:102F30001A10BDF81A1021805621ADF81A10BDF8EC
:102F40001A10ADF81A10BDF81A1021803C21ADF806
:102F50001A10BDF81A10ADF81A10BDF81A10218019
:102F60000521ADF81A10BDF81A10ADF81A10BDF809
:102F70001A102180ADF81AC0BDF81A10ADF81A1059
:102F8000BDF81A102180ADF81A70BDF81A10ADF80E
:102F90001A10BDF81A1021803F21ADF81A10BDF8A3
:102FA0001A20ADF81A20BDF81A202280ADF81A10A8
:102FB000BDF81A20ADF81A20BDF81A202280ADF80D
:102FC0001A70BDF81A20ADF81A20BDF81A20228018
:102FD000ADF81A50BDF81A20ADF81A20BDF81A2025
:102FE00024F8022CADF81A00BDF81A20ADF81A200A
:102FF000BDF81A202280ADF81A00BDF81A20ADF8ED
:103000001A20BDF81A202280ADF81AE0BDF81A2067
:10301000ADF81A20BDF81A202280ADF81A10BDF8BC
:103020001A10ADF81A10BDF81A102180ADF81A3038
:10303000BDF81A10ADF81A10BDF81A1024F8021CC9
:10304000ADF81A00BDF81A10ADF81A10BDF81A1034
:103050002180ADF81A00BDF81A10ADF81A10BDF8AD
:103060001A102180ADF81A00BDF81A00ADF81A0048
:10307000BDF81A002080EF20ADF81A00BDF81A0044
:10308000ADF81A00BDF81A002080ADF81A60BDF83E
:103090001A00ADF81A00BDF81A0024F8020C7820C6
:1030A000FEF722FA04F085BA204C43442049443A02
:1030B00025780D0A0000000041F66311884204F0F3
:1030C000858245F21031884244F0ED84ED20ADF860
:1030D0001A00BDF81A000122ADF81A00BDF81A0056
:1030E000002624F8020C0120ADF81A00BDF81A00E1
:1030F0002123ADF81A00BDF81A008B252080FE2090
:10310000ADF81A00BDF81A004FF0200BADF81A0008
:10311000BDF81A004FF03C0A2080EE20ADF81A00EE
:10312000BDF81A004FF03608ADF81A00BDF81A00C5
:103130004FF0320E24F8020CDE20ADF81A00BDF874
:103140001A004FF02C0CADF81A00BDF81A002080C0
:103150002120ADF81A00BDF81A10C420ADF81A10DD
:10316000BDF81A102180F121ADF81A10BDF81A101F
:10317000ADF81A10BDF81A1024F8021CADF81A2088
:10318000BDF81A10ADF81A10BDF81A102180DF2111
:10319000ADF81A10BDF81A10ADF81A10BDF81A10D3
:1031A00024F8021C1021ADF81A10BDF81A10ADF861
:1031B0001A10BDF81A102180ADF81A00BDF81A10C7
:1031C000C620ADF81A10BDF81A1024F8021C8F2181
:1031D000ADF81A10BDF81A10ADF81A10BDF81A1093
:1031E0002180ADF81A00BDF81A10E220ADF81A10CF
:1031F000BDF81A1024F8021CADF81A60BDF81A10B8
:10320000ADF81A10BDF81A102180ADF81A00BDF8FB
:103210001A10ADF81A10BDF81A102180ADF81A0076
:10322000BDF81A10ADF81A10BDF81A102180ADF8CB
:103230001A00BDF81A105D20ADF81A10BDF81A106A
:103240002180BF21ADF81A10BDF81A10ADF81A1080
:10325000BDF81A1024F8021CAA21ADF81A10BDF806
:103260001A10ADF81A10BDF81A102180B021ADF86F
:103270001A10BDF81A10ADF81A10BDF81A1024F87B
:10328000021C0D21ADF81A10BDF81A20ADF81A2055
:10329000BDF81A202280ADF81A60BDF81A20ADF8EA
:1032A0001A20BDF81A202280ADF81A10BDF81A10A5
:1032B000ADF81A10BDF81A102180ADF81A60BDF8EB
:1032C0001A10ADF81A10BDF81A1021801121ADF8AE
:1032D0001A10BDF81A10ADF81A10BDF81A10218096
:1032E000ADF81A60BDF81A10ADF81A10BDF81A1032
:1032F00021801921ADF81A10BDF81A10ADF81A1076
:10330000BDF81A102180ADF81A60BDF81A10ADF89A
:103310001A10BDF81A102180ADF81A30BDF81A1035
:103320000223ADF81A10BDF81A102180ADF81A600A
:10333000BDF81A10ADF81A10BDF81A1021802D2111
:10334000ADF81A10BDF81A10ADF81A10BDF81A1021
:103350002180ADF81A60BDF81A10ADF81A10BDF84A
:103360001A1021803D21ADF81A10BDF81A10ADF8E1
:103370001A10BDF81A102180ADF81A60BDF81A10A5
:10338000ADF81A10BDF81A102180ADF81A00BDF87A
:103390001A10ADF81A10BDF81A102180ADF81A6095
:1033A000BDF81A10ADF81A10BDF81A102180ADF84A
:1033B0001A00BDF81A108B20ADF81A10BDF81A10BB
:1033C0002180ADF81A60BDF81A10ADF81A10BDF8DA
:1033D0001A102180B121ADF81A10BDF81A10ADF8FD
:1033E0001A10BDF81A1024F8021C8021ADF81A102A
:1033F000BDF81A10ADF81A10BDF81A102180ADF8FA
:103400001A60BDF81A10ADF81A10BDF81A10218014
:10341000ADF81A00BDF81A100220ADF81A10BDF868
:103420001A102180ADF81A60BDF81A10ADF81A1004
:10343000BDF81A1021809621ADF81A10BDF81A2097
:10344000ADF81A20BDF81A202280ADF81A60BDF838
:103450001A20ADF81A20BDF81A202280B222ADF849
:103460001A20BDF81A20ADF81A20BDF81A2024F849
:10347000022CADF81A60BDF81A20ADF81A20BDF87C
:103480001A202280ADF81A60BDF81A20ADF81A2073
:10349000BDF81A202280ADF81A00BDF81A20B3201A
:1034A000ADF81A20BDF81A202280ADF81A60BDF8D8
:1034B0001A20ADF81A20BDF81A2022800322ADF898
:1034C0001A20BDF81A70ADF81A70BDF81A7027806E
:1034D000ADF81A60BDF81A70ADF81A70BDF81A7020
:1034E0002780ADF81A00BDF81A70B720ADF81A7031
:1034F000BDF81A7024F8027CADF81A60BDF81A7095
:10350000ADF81A70BDF81A702780ADF81A60BDF8D2
:103510001A70ADF81A70BDF81A702780ADF81A60ED
:10352000BDF81A70ADF81A70BDF81A702780ADF8A2
:103530001A60BDF81A70ADF81A70BDF81A702780BD
:10354000ADF81A60BDF81A70ADF81A70BDF81A70AF
:103550002780ADF81A60BDF81A70ADF81A70BDF882
:103560001A702780ADF81A60BDF81A70ADF81A709D
:10357000BDF81A702780ADF81A60BDF81A70ADF862
:103580001A70BDF81A702780ADF81A60BDF81A706D
:10359000ADF81A70BDF81A702780ADF81A60BDF842
:1035A0001A70ADF81A70BDF81A702780ADF81A605D
:1035B000BDF81A70ADF81A70BDF81A702780ADF812
:1035C0001A60BDF81A70ADF81A70BDF81A7027802D
:1035D000ADF81A60BDF81A70ADF81A70BDF81A701F
:1035E0002780ADF81A60BDF81A70ADF81A70BDF8F2
:1035F0001A702780ADF81A60BDF81A70ADF81A700D
:10360000BDF81A702780ADF81A60BDF81A70ADF8D1
:103610001A70BDF81A702780ADF81A60BDF81A70DC
:10362000ADF81A70BDF81A702780ADF81A60BDF8B1
:103630001A70ADF81A70BDF81A702780ADF81A60CC
:10364000BDF81A70ADF81A70BDF81A702780ADF881
:103650001A60BDF81A70ADF81A70BDF81A7027809C
:10366000ADF81A60BDF81A70ADF81A70BDF81A708E
:103670002780ADF81A60BDF81A70ADF81A70BDF861
:103680001A702780ADF81A60BDF81A70ADF81A707C
:10369000BDF81A702780ADF81A60BDF81A70ADF841
:1036A0001A70BDF81A702780B427ADF81A70BDF8EB
:1036B0001A70ADF81A70BDF81A7024F8027CADF8D3
:1036C0001A50BDF81A70ADF81A70BDF81A7027803C
:1036D000ADF81A60BDF81A70ADF81A70BDF81A701E
:1036E0002780ADF81A10BDF81A100427ADF81A108B
:1036F000BDF81A102180ADF81A60BDF81A10ADF8A7
:103700001A10BDF81A102180A121ADF81A10BDF8C9
:103710001A10ADF81A10BDF81A102180ADF81A6011
:10372000BDF81A10ADF81A10BDF81A102180B52195
:10373000ADF81A10BDF81A10ADF81A10BDF81A102D
:1037400024F8021CADF81A30BDF81A10FF23ADF8AA
:103750001A10BDF81A102180ADF81A60BDF81A10C1
:10376000ADF81A10BDF81A102180ADF81A20BDF876
:103770001A10ADF81A10BDF81A102180ADF81A60B1
:10378000BDF81A10ADF81A10BDF81A102180ADF866
:103790001A70BDF81A10ADF81A10BDF81A10218071
:1037A000ADF81A60BDF81A10ADF81A10BDF81A106D
:1037B0002180B621ADF81A10BDF81A10ADF81A1014
:1037C000BDF81A1024F8021CADF81A60BDF81A10E2
:1037D000ADF81A10BDF81A102180ADF81A60BDF8C6
:1037E0001A10ADF81A10BDF81A102180ADF81A00A1
:1037F000BDF81A106420ADF81A10BDF81A1024F89C
:10380000021CADF81A60BDF81A10ADF81A10BDF818
:103810001A102180ADF81A60BDF81A10ADF81A1010
:10382000BDF81A1021803F21ADF81A10BDF81A100A
:10383000ADF81A10BDF81A102180ADF81A60BDF865
:103840001A10ADF81A10BDF81A1021805E21ADF8DB
:103850001A10BDF81A10ADF81A10BDF81A10218010
:10386000ADF81A60BDF81A10ADF81A10BDF81A10AC
:103870002180ADF81A00BDF81A10DC20ADF81A103E
:10388000BDF81A102180ADF81A60BDF81A10ADF815
:103890001A10BDF81A1021808C21ADF81A10BDF84D
:1038A0001A10ADF81A10BDF81A102180ADF81A6080
:1038B000BDF81A10ADF81A10BDF81A102180AC210D
:1038C000ADF81A10BDF81A10ADF81A10BDF81A109C
:1038D0002180ADF81A60BDF81A10ADF81A10BDF8C5
:1038E0001A102180ADF81A00BDF81A10ADF81A10A0
:1038F000BDF81A102180ADF81A60BDF81A10ADF8A5
:103900001A10BDF81A1021807021ADF81A10BDF8F8
:103910001A10ADF81A10BDF81A102180ADF81A600F
:10392000BDF81A10ADF81A10BDF81A1021809021B8
:10393000ADF81A10BDF81A10ADF81A10BDF81A102B
:103940002180ADF81A60BDF81A10ADF81A10BDF854
:103950001A102180EB21ADF81A10BDF81A10ADF83D
:103960001A10BDF81A102180ADF81A60BDF81A10AF
:10397000ADF81A10BDF81A102180ADF81A00BDF884
:103980001A10C220ADF81A10BDF81A102180ADF837
:103990001A60BDF81A10ADF81A10BDF81A1021807F
:1039A000B821ADF81A10BDF81A10ADF81A10BDF80C
:1039B0001A1024F8021CADF81A60BDF81A10ADF800
:1039C0001A10BDF81A102180ADF81A60BDF81A104F
:1039D000ADF81A10BDF81A102180ADF81A60BDF8C4
:1039E0001A10ADF81A10BDF81A102180ADF81A603F
:1039F000BDF81A10ADF81A10BDF81A102180ADF8F4
:103A00001A60BDF81A10ADF81A10BDF81A1021800E
:103A1000ADF81A60BDF81A10ADF81A10BDF81A10FA
:103A20002180ADF81A60BDF81A10ADF81A10BDF873
:103A30001A102180ADF81A60BDF81A10ADF81A10EE
:103A4000BDF81A102180BA21ADF81A10BDF81A106D
:103A5000ADF81A10BDF81A1024F8021C2421ADF894
:103A60001A10BDF81A20ADF81A20BDF81A202280CD
:103A7000ADF81A60BDF81A20ADF81A20BDF81A206A
:103A80002280ADF81A60BDF81A20ADF81A20BDF8F2
:103A90001A202280ADF81A60BDF81A20ADF81A205D
:103AA000BDF81A202280C122ADF81A20BDF81A20D4
:103AB000ADF81A20BDF81A2024F8022CADF81AB07F
:103AC000BDF81A502322ADF81A50BDF81A502580BF
:103AD000ADF81A60BDF81A50ADF81A50BDF81A507A
:103AE00025805425ADF81A50BDF81A50ADF81A507B
:103AF000BDF81A502580ADF81A60BDF81A50ADF81F
:103B00001A50BDF81A502580ADF81A30BDF81A5079
:103B10003A23ADF81A50BDF81A502580ADF81A6056
:103B2000BDF81A50ADF81A50BDF81A502580ADF8FE
:103B30001A00BDF81A500A20ADF81A50BDF81A50F4
:103B400024F8025CADF81A00BDF81A503C20ADF81C
:103B50001A50BDF81A502580ADF81A60BDF81A50F9
:103B6000ADF81A50BDF81A502580ADF81A70BDF89E
:103B70001A70ADF81A70BDF81A702780ADF81A6087
:103B8000BDF81A70ADF81A70BDF81A702780C327F7
:103B9000ADF81A70BDF81A70ADF81A70BDF81A7049
:103BA00024F8027CADF81A00BDF81A70ADF81A704E
:103BB000BDF81A702780ADF81A60BDF81A70ADF81C
:103BC0001A70BDF81A702780ADF81A30BDF81A7057
:103BD0002C23ADF81A70BDF81A702780ADF81A6062
:103BE000BDF81A70ADF81A70BDF81A702780392721
:103BF000ADF81A70BDF81A70ADF81A70BDF81A70E9
:103C00002780ADF81A60BDF81A70ADF81A70BDF8CB
:103C10001A7027803727ADF81A70BDF81A70ADF802
:103C20001A70BDF81A702780ADF81A60BDF81A70C6
:103C3000ADF81A70BDF81A702780ADF81A00BDF8FB
:103C40001A703620ADF81A70BDF81A702780ADF8DA
:103C50001A60BDF81A70ADF81A70BDF81A70278096
:103C6000ADF81A00BDF81A703220ADF81A70BDF820
:103C70001A702780ADF81A60BDF81A70ADF81A7086
:103C8000BDF81A702780ADF81A00BDF81A70292007
:103C9000ADF81A70BDF81A702780ADF81A60BDF83B
:103CA0001A70ADF81A70BDF81A7027802F27ADF87A
:103CB0001A70BDF81A50ADF81A50BDF81A50258088
:103CC000ADF81A60BDF81A50ADF81A50BDF81A5088
:103CD0002580ADF81A30BDF81A502923ADF81A50D6
:103CE000BDF81A502580ADF81A60BDF81A50ADF82D
:103CF0001A50BDF81A502580ADF81A30BDF81A5088
:103D0000ADF81A50BDF81A502580ADF81A60BDF80C
:103D10001A50ADF81A50BDF81A5025802625ADF876
:103D20001A50BDF81A30ADF81A30BDF81A30238099
:103D3000ADF81A60BDF81A30ADF81A30BDF81A3077
:103D40002380ADF81A10BDF81A30ADF81A30BDF85E
:103D50001A302380ADF81A60BDF81A30ADF81A3069
:103D6000BDF81A302380ADF81A10BDF81A30ADF83E
:103D70001A30BDF81A302380ADF81A60BDF81A3039
:103D8000ADF81A30BDF81A3023802323ADF81A306D
:103D9000BDF81A30ADF81A30BDF81A302380ADF8EE
:103DA0001A60BDF81A30ADF81A30BDF81A30238009
:103DB000ADF81AA0BDF81A30ADF81A30BDF81A30B7
:103DC0002380ADF81A60BDF81A30ADF81A30BDF88E
:103DD0001A302380ADF81A80BDF81A304FF07A08F7
:103DE000ADF81A30BDF81A302380ADF81A60BDF86E
:103DF0001A30ADF81A30BDF81A302380ADF81AE049
:103E0000BDF81A30ADF81A30BDF81A302380ADF87D
:103E10001A60BDF81A30ADF81A30BDF81A30238098
:103E2000ADF81A70BDF81A30ADF81A30BDF81A3076
:103E30002380ADF81A60BDF81A30ADF81A30BDF81D
:103E40001A302380ADF81AC0BDF81A304FF0C40CF8
:103E5000ADF81A30BDF81A302380ADF81A60BDF8FD
:103E60001A30ADF81A30BDF81A302380ADF81A00B8
:103E7000BDF81A30C420ADF81A30BDF81A302380CE
:103E8000ADF81A60BDF81A30ADF81A30BDF81A3026
:103E90002380ADF81A50BDF81A301625ADF81A3047
:103EA000BDF81A302380ADF81A60BDF81A30ADF8AD
:103EB0001A30BDF81A302380ADF81A10BDF81A3048
:103EC000ADF81A30BDF81A302380ADF81A60BDF88D
:103ED0001A30ADF81A30BDF81A302380ADF81A1038
:103EE000BDF81A10ADF81A10BDF81A102180ADF8FF
:103EF0001A60BDF81A10ADF81A10BDF81A1021801A
:103F0000ADF81A20BDF81A10ADF81A10BDF81A1045
:103F10002180ADF81A60BDF81A10ADF81A10BDF87E
:103F20001A102180ADF81A00BDF81A106220ADF801
:103F30001A10BDF81A1024F8021CADF81A00BDF8CA
:103F40001A100520ADF81A10BDF81A102180ADF82E
:103F50001A60BDF81A10ADF81A10BDF81A102180B9
:103F6000ADF81A00BDF81A108420ADF81A10BDF88B
:103F70001A102180ADF81A60BDF81A10ADF81A10A9
:103F8000BDF81A102180ADF81A00BDF81A10F02003
:103F9000ADF81A10BDF81A102180ADF81A60BDF8FE
:103FA0001A10ADF81A10BDF81A102180ADF81A00D9
:103FB000BDF81A105020ADF81A10BDF81A10218063
:103FC000ADF81A60BDF81A10ADF81A10BDF81A1045
:103FD00021801821ADF81A10BDF81A30ADF81A304A
:103FE000BDF81A302380ADF81A60BDF81A30ADF86C
:103FF0001A30BDF81A302380A423ADF81A30BDF86A
:104000001A30ADF81A30BDF81A302380ADF81A60B6
:10401000BDF81A30ADF81A30BDF81A302380ADF86B
:104020001A10BDF81A10ADF81A10BDF81A10218038
:10403000ADF81A60BDF81A10ADF81A10BDF81A10D4
:104040002180ADF81A00BDF81A10F320ADF81A104F
:10405000BDF81A102180ADF81A60BDF81A10ADF83D
:104060001A10BDF81A1021800C21ADF81A10BDF8F5
:104070001A10ADF81A10BDF81A102180ADF81A60A8
:10408000BDF81A10ADF81A10BDF81A1021801721CA
:10409000ADF81A10BDF81A30ADF81A30BDF81A3064
:1040A0002380ADF81A60BDF81A30ADF81A30BDF8AB
:1040B0001A3023809523ADF81A30BDF81A30ADF8C8
:1040C0001A30BDF81A302380ADF81A60BDF81A30E6
:1040D000ADF81A30BDF81A302380ADF81A00BDF8DB
:1040E0001A30E620ADF81A30BDF81A302380ADF84A
:1040F0001A60BDF81A30ADF81A30BDF81A302380B6
:10410000ADF81A00BDF81A304420ADF81A30BDF8E9
:104110001A302380ADF81A60BDF81A30ADF81A30A5
:10412000BDF81A302380C523ADF81A30BDF81A3017
:10413000ADF81A30BDF81A3024F8023CADF81AE098
:10414000BDF81A304FF08B0EADF81A30BDF81A30AA
:104150002380ADF81A60BDF81A30ADF81A30BDF8FA
:104160001A302380ADF81A00BDF81A307620ADF869
:104170001A30BDF81A302380ADF81A60BDF81A3035
:10418000ADF81A30BDF81A3023806523ADF81A3027
:10419000BDF81A30ADF81A30BDF81A302380ADF8EA
:1041A0001A60BDF81A30ADF81A30BDF81A30238005
:1041B000ADF81A00BDF81A308820ADF81A30BDF8F5
:1041C0001A302380ADF81A60BDF81A30ADF81A30F5
:1041D000BDF81A302380ADF81A00BDF81A30C62099
:1041E000ADF81A30BDF81A302380ADF81A60BDF86A
:1041F0001A30ADF81A30BDF81A302380ADF81A0025
:10420000BDF81A300120ADF81A30BDF81A3024F884
:10421000023CADF81AB0BDF81A204FF0640BADF8AF
:104220001A20BDF81A20A8232280ADF81A60BDF824
:104230001A20ADF81A20BDF81A202280ADF81A1005
:10424000BDF81A10B922ADF81A10BDF81A10218065
:10425000ADF81A60BDF81A10ADF81A10BDF81A10B2
:104260002180ADF81A00BDF81A10C720ADF81A1059
:10427000BDF81A102180ADF81A60BDF81A10ADF81B
:104280001A10BDF81A102180ADF81A00BDF81A10E6
:10429000E020ADF81A10BDF81A1024F8021CADF891
:1042A0001A60BDF81A10ADF81A10BDF81A10218066
:1042B000ADF81A60BDF81A10ADF81A10BDF81A1052
:1042C0002180ADF81A60BDF81A10ADF81A10BDF8CB
:1042D0001A102180ADF81A60BDF81A10ADF81A1046
:1042E000BDF81A102180C821ADF81A10BDF81A10B7
:1042F000ADF81A10BDF81A1024F8021CADF81A60B7
:10430000BDF81A10ADF81A10BDF81A102180ADF8DA
:104310001A60BDF81A10ADF81A10BDF81A102180F5
:10432000ADF81A60BDF81A10ADF81A10BDF81A10E1
:104330002180ADF81A60BDF81A10ADF81A10BDF85A
:104340001A102180C921ADF81A10BDF81A10ADF865
:104350001A10BDF81A1024F8021CADF81A60BDF846
:104360001A10ADF81A10BDF81A102180ADF81A60B5
:10437000BDF81A10ADF81A10BDF81A102180ADF86A
:104380001A60BDF81A10ADF81A10BDF81A10218085
:10439000ADF81A60BDF81A10ADF81A10BDF81A1071
:1043A0002180ADF81A60BDF81A10ADF81A10BDF8EA
:1043B0001A102180ADF81A60BDF81A10ADF81A1065
:1043C000BDF81A102180ADF81A60BDF81A10ADF8CA
:1043D0001A10BDF81A102180ADF81A60BDF81A1035
:1043E000ADF81A10BDF81A102180ADF81A60BDF8AA
:1043F0001A10ADF81A10BDF81A102180ADF81A6025
:10440000BDF81A10ADF81A10BDF81A102180ADF8D9
:104410001A60BDF81A10ADF81A10BDF81A102180F4
:10442000ADF81A60BDF81A10ADF81A10BDF81A10E0
:104430002180ADF81A60BDF81A10ADF81A10BDF859
:104440001A102180ADF81A60BDF81A10ADF81A10D4
:10445000BDF81A102180ADF81A60BDF81A10ADF839
:104460001A10BDF81A102180ADF81A60BDF81A10A4
:10447000ADF81A10BDF81A102180ADF81A00BDF879
:104480001A101C20ADF81A10BDF81A1024F8021CDE
:10449000ADF81A50BDF81A10ADF81A10BDF81A1080
:1044A0002180ADF81A60BDF81A10ADF81A10BDF8E9
:1044B0001A102180ADF81A00BDF81A102120ADF8AD
:1044C0001A10BDF81A102180ADF81A60BDF81A1044
:1044D000ADF81A10BDF81A102180ADF81A00BDF819
:1044E0001A00CA21ADF81A00BDF81A002080ADF8F4
:1044F0001A60BDF81A00ADF81A00BDF81A00208045
:104500003620ADF81A00BDF81A00ADF81A00BDF853
:104510001A002080ADF81A60BDF81A00ADF81A0034
:10452000BDF81A0020804620ADF81A00BDF81A0028
:10453000ADF81A00BDF81A002080ADF81A60BDF879
:104540001A00ADF81A00BDF81A0020805220ADF80C
:104550001A00BDF81A00ADF81A00BDF81A00208044
:10456000ADF81A60BDF81A00ADF81A00BDF81A00CF
:104570002080ADF81AB0BDF81A00ADF81A00BDF8E9
:104580001A002080ADF81A60BDF81A00ADF81A00C4
:10459000BDF81A002080ADF81A80BDF81A00ADF8F9
:1045A0001A00BDF81A002080ADF81A60BDF81A0094
:1045B000ADF81A00BDF81A002080ADF81AE0BDF879
:1045C0001A00ADF81A00BDF81A002080ADF81A6084
:1045D000BDF81A00ADF81A00BDF81A002080992025
:1045E000ADF81A00BDF81A00ADF81A00BDF81A00AF
:1045F0002080ADF81A60BDF81A00ADF81A00BDF8B9
:104600001A002080ADF81A30BDF81A00ADF81A0073
:10461000BDF81A002080ADF81A60BDF81A00ADF898
:104620001A00BDF81A002080ADF81A20BDF81A0053
:10463000ADF81A00BDF81A002080ADF81A60BDF878
:104640001A00ADF81A00BDF81A002080ADF81AC0A3
:10465000BDF81A00ADF81A00BDF81A002080ADF8B8
:104660001A60BDF81A00ADF81A00BDF81A002080D3
:10467000ADF81A10BDF81A00ADF81A00BDF81A000E
:104680002080ADF81A60BDF81A00ADF81A00BDF828
:104690001A002080D220ADF81A00BDF81AA0ADF89B
:1046A0001AA0BDF81A704FF0F30A2780ADF81A600F
:1046B000BDF81A70ADF81A70BDF81A702780D927A6
:1046C000ADF81A70BDF81A70ADF81A70BDF81A700E
:1046D0002780ADF81A60BDF81A70ADF81A70BDF8F1
:1046E0001A702780E027ADF81A70BDF81A70ADF87F
:1046F0001A70BDF81A702780ADF81A60BDF81A70EC
:10470000ADF81A70BDF81A702780ADF81AA0BDF880
:104710001A70ADF81A70BDF81A702780ADF81A60DB
:10472000BDF81A70ADF81A70BDF81A702780E1272D
:10473000ADF81A70BDF81A70ADF81A70BDF81A709D
:1047400024F8027CADF81A50BDF81A50ADF81A5092
:10475000BDF81A502580ADF81A60BDF81A50ADF8B2
:104760001A50BDF81A5025801C25ADF81A50BDF816
:104770001A50ADF81A50BDF81A502580ADF81A60DD
:10478000BDF81A50ADF81A50BDF81A5025802225F0
:10479000ADF81A50BDF81A50ADF81A50BDF81A50BD
:1047A0002580ADF81A60BDF81A50ADF81A50BDF862
:1047B0001A5025803625ADF81A50BDF81A50ADF8BC
:1047C0001A50BDF81A502580ADF81A60BDF81A507D
:1047D000ADF81A50BDF81A5025804525ADF81A508D
:1047E000BDF81A50ADF81A50BDF81A502580ADF832
:1047F0001A60BDF81A50ADF81A50BDF81A5025804D
:104800005225ADF81A50BDF81A70D125ADF81A70BE
:10481000BDF81A702780ADF81A60BDF81A70ADF8AF
:104820001A70BDF81A702780ADF81AB0BDF81A706A
:104830004FF0440BADF81A70BDF81A702780ADF830
:104840001A60BDF81A70ADF81A70BDF81A7027809A
:10485000ADF81A80BDF81A704FF00508ADF81A705F
:10486000BDF81A702780ADF81A60BDF81A70ADF85F
:104870001A70BDF81A702780ADF81AE0BDF81A70EA
:104880004FF0880EADF81A70BDF81A702780ADF899
:104890001A60BDF81A70ADF81A70BDF81A7027804A
:1048A0009927ADF81A70BDF81A70ADF81A70BDF8F6
:1048B0001A702780ADF81A60BDF81A70ADF81A703A
:1048C000BDF81A702780ADF81A30BDF81A30C2272B
:1048D000ADF81A30BDF81A302380ADF81A60BDF873
:1048E0001A30ADF81A30BDF81A302380ADF81A200E
:1048F000BDF81A20A623ADF81A20BDF81A20228090
:10490000ADF81A60BDF81A20ADF81A20BDF81A20CB
:104910002280ADF81AC0BDF81A204FF0F30CADF8A4
:104920001A20BDF81A202280ADF81A60BDF81A20AE
:10493000ADF81A20BDF81A202280ADF81A10BDF883
:104940001A10C722ADF81A10BDF81A102180ADF860
:104950001A60BDF81A10ADF81A10BDF81A102180AF
:10496000ADF81A00BDF81A00B721ADF81A00BDF86D
:104970001A002080ADF81A60BDF81A00ADF81A00D0
:10498000BDF81A002080D820ADF81A00BDF81A0032
:10499000ADF81A00BDF81A002080ADF81A60BDF815
:1049A0001A00ADF81A00BDF81A002080E020ADF81A
:1049B0001A00BDF81A00ADF81A00BDF81A002080E0
:1049C000ADF81A60BDF81A00ADF81A00BDF81A006B
:1049D0002080ADF81AA0BDF81A004FF0970AADF884
:1049E0001A00BDF81A002080ADF81A60BDF81A0050
:1049F000ADF81A00BDF81A002080E220ADF81A00C8
:104A0000BDF81A00ADF81A00BDF81A0024F8020C1F
:104A1000ADF81A80BDF81A00ADF81A00BDF81A00FA
:104A20002080ADF81A60BDF81A00ADF81A00BDF884
:104A30001A0020800B20ADF81A00BDF81A00ADF85E
:104A40001A00BDF81A002080ADF81A60BDF81A00EF
:104A5000ADF81A00BDF81A0020801B20ADF81A002E
:104A6000BDF81A00ADF81A00BDF81A002080ADF8A4
:104A70001A60BDF81A00ADF81A00BDF81A002080BF
:104A80003420ADF81A00BDF81A00ADF81A00BDF8D0
:104A90001A002080ADF81A60BDF81A00ADF81A00AF
:104AA000BDF81A002080ADF81AB0BDF81A00ADF8B4
:104AB0001A00BDF81A002080ADF81A60BDF81A007F
:104AC000ADF81A00BDF81A0020804F20ADF81A008A
:104AD000BDF81A00ADF81A00BDF81A002080ADF834
:104AE0001A60BDF81A00ADF81A00BDF81A0020804F
:104AF0006120ADF81A00BDF81A00ADF81A00BDF833
:104B00001A002080ADF81A60BDF81A00ADF81A003E
:104B1000BDF81A0020807920ADF81A00BDF81A00FF
:104B2000ADF81A00BDF81A002080ADF81A60BDF883
:104B30001A00ADF81A00BDF81A002080ADF81AE08E
:104B4000BDF81A00ADF81A00BDF81A002080ADF8C3
:104B50001A60BDF81A00ADF81A00BDF81A002080DE
:104B6000ADF81AA0BDF81A00ADF81A00BDF81A0089
:104B70002080ADF81A60BDF81A00ADF81A00BDF833
:104B80001A002080ADF81A30BDF81A00ADF81A00EE
:104B9000BDF81A002080ADF81A60BDF81A00ADF813
:104BA0001A00BDF81A002080ADF81A10BDF81A00DE
:104BB000ADF81A00BDF81A002080ADF81A60BDF8F3
:104BC0001A00ADF81A00BDF81A002080ADF81A706E
:104BD000BDF81A00ADF81A00BDF81A002080ADF833
:104BE0001A60BDF81A00ADF81A00BDF81A0020804E
:104BF000ADF81A20BDF81A00ADF81A00BDF81A0079
:104C00002080ADF81A60BDF81A00ADF81A00BDF8A2
:104C10001A002080ADF81A50BDF81A00ADF81A003D
:104C2000BDF81A002080ADF81A60BDF81A00ADF882
:104C30001A00BDF81A002080D620ADF81A00BDF881
:104C40001A00ADF81A00BDF81A002080ADF81A60FD
:104C5000BDF81A00ADF81A00BDF81A002080DD205A
:104C6000ADF81A00BDF81A00ADF81A00BDF81A0028
:104C70002080ADF81A60BDF81A00ADF81A00BDF832
:104C80001A002080ADF81AC0BDF81A00ADF81A005D
:104C9000BDF81A002080ADF81A60BDF81A00ADF812
:104CA0001A00BDF81A002080E320ADF81A00BDF804
:104CB0001A00ADF81A00BDF81A0024F8020CADF87D
:104CC0001A80BDF81A004FF09308ADF81A00BDF82D
:104CD0001A002080ADF81A60BDF81A00ADF81A006D
:104CE000BDF81A0020800A20ADF81A00BDF81A009D
:104CF000ADF81A00BDF81A002080ADF81A60BDF8B2
:104D00001A00ADF81A00BDF81A0020801C20ADF87A
:104D10001A00BDF81A00ADF81A00BDF81A0020807C
:104D2000ADF81A60BDF81A00ADF81A00BDF81A0007
:104D300020803320ADF81A00BDF81A00ADF81A0033
:104D4000BDF81A002080ADF81A60BDF81A00ADF861
:104D50001A00BDF81A002080ADF81AB0BDF81A008C
:104D60004FF0740BADF81A00BDF81A002080ADF8B2
:104D70001A60BDF81A00ADF81A00BDF81A002080BC
:104D80005020ADF81A00BDF81A00ADF81A00BDF8B1
:104D90001A002080ADF81A60BDF81A00ADF81A00AC
:104DA000BDF81A0020806220ADF81A00BDF81A0084
:104DB000ADF81A00BDF81A002080ADF81A60BDF8F1
:104DC0001A00ADF81A00BDF81A0020807820ADF85E
:104DD0001A00BDF81A00ADF81A00BDF81A002080BC
:104DE000ADF81A60BDF81A00ADF81A00BDF81A0047
:104DF0002080ADF81AE0BDF81A004FF0C40EADF8EF
:104E00001A00BDF81A002080ADF81A60BDF81A002B
:104E1000ADF81A00BDF81A002080ADF81AA0BDF850
:104E20001A004FF0840AADF81A00BDF81A0020806D
:104E3000ADF81A60BDF81A00ADF81A00BDF81A00F6
:104E40002080ADF81A30BDF81A00ADF81A00BDF890
:104E50001A002080ADF81A60BDF81A00ADF81A00EB
:104E6000BDF81A002080ADF81A10BDF81A00012113
:104E7000ADF81A00BDF81A002080ADF81A60BDF830
:104E80001A00ADF81A00BDF81A002080ADF81A70AB
:104E9000BDF81A00A227ADF81A00BDF81A0020804C
:104EA000ADF81A60BDF81A00ADF81A00BDF81A0086
:104EB0002080ADF81A20BDF81A00ADF81A00BDF830
:104EC0001A002080ADF81A60BDF81A00ADF81A007B
:104ED000BDF81A002080ADF81A50BDF81A00B325AD
:104EE000ADF81A00BDF81A002080ADF81A60BDF8C0
:104EF0001A00ADF81A00BDF81A002080D520ADF8D0
:104F00001A00BDF81A00ADF81A00BDF81A0020808A
:104F1000ADF81A60BDF81A00ADF81A00BDF81A0015
:104F20002080DD20ADF81A00BDF81A00ADF81A0097
:104F3000BDF81A002080ADF81A60BDF81A00ADF86F
:104F40001A00BDF81A002080ADF81AC0BDF81A008A
:104F50004FF0CD0CADF81A00BDF81A002080ADF866
:104F60001A60BDF81A00ADF81A00BDF81A002080CA
:104F7000E420ADF81A00BDF81A00ADF81A00BDF82B
:104F80001A0024F8020CADF81A10BDF81A00ADF89A
:104F90001A00BDF81A002080ADF81A60BDF81A009A
:104FA000ADF81A00BDF81A002080ADF81A10BDF84F
:104FB0001A00ADF81A00BDF81A002080ADF81A608A
:104FC000BDF81A00ADF81A00BDF81A0020800220C2
:104FD000ADF81A00BDF81A00ADF81A00BDF81A00B5
:104FE0002080ADF81A60BDF81A00ADF81A00BDF8BF
:104FF0001A0020802A20ADF81A00BDF81A00ADF87A
:105000001A00BDF81A002080ADF81A60BDF81A0029
:10501000ADF81A00BDF81A0020803C20ADF81A0047
:10502000BDF81A00ADF81A00BDF81A002080ADF8DE
:105030001A60BDF81A00ADF81A00BDF81A002080F9
:105040004B20ADF81A00BDF81A00ADF81A00BDF8F3
:105050001A002080ADF81A60BDF81A00ADF81A00E9
:10506000BDF81A0020805D20ADF81A00BDF81A00C6
:10507000ADF81A00BDF81A002080ADF81A60BDF82E
:105080001A00ADF81A00BDF81A002080ADF81AB069
:10509000BDF81A00ADF81A00BDF81A002080ADF86E
:1050A0001A60BDF81A00ADF81A00BDF81A00208089
:1050B000ADF81AA0BDF81A00ADF81A00BDF81A0034
:1050C0002080ADF81A60BDF81A00ADF81A00BDF8DE
:1050D0001A002080ADF81A80BDF81A00ADF81A0049
:1050E000BDF81A002080ADF81A60BDF81A00ADF8BE
:1050F0001A00BDF81A002080ADF81A70BDF81A0029
:10510000ADF81A00BDF81A002080ADF81A60BDF89D
:105110001A00ADF81A00BDF81A002080ADF81A5038
:10512000BDF81A00ADF81A00BDF81A002080ADF8DD
:105130001A60BDF81A00ADF81A00BDF81A002080F8
:10514000BE20ADF81A00BDF81A10ADF81A10BDF85F
:105150001A102180ADF81A60BDF81A10ADF81A10B7
:10516000BDF81A102180ADF81AE0BDF81A10ADF89C
:105170001A10BDF81A102180ADF81A60BDF81A1087
:10518000ADF81A10BDF81A102180ADF81AC0BDF89C
:105190001A20DD21ADF81A20BDF81A202280ADF8C2
:1051A0001A60BDF81A20ADF81A20BDF81A20228026
:1051B000D322ADF81A20BDF81A30ADF81A30BDF878
:1051C0001A302380ADF81A60BDF81A30ADF81A30E5
:1051D000BDF81A302380ADF81A10BDF81A30F3214B
:1051E000ADF81A30BDF81A302380ADF81A60BDF85A
:1051F0001A30ADF81A30BDF81A302380ADF81A1005
:10520000BDF81A30ADF81A30BDF81A302380ADF869
:105210001A60BDF81A30ADF81A30BDF81A30238084
:10522000E523ADF81A30BDF81A30ADF81A30BDF8E4
:105230001A3024F8023CADF81A60BDF81A30ADF807
:105240001A30BDF81A302380ADF81A60BDF81A3054
:10525000ADF81A30BDF81A302380ADF81A60BDF8E9
:105260001A30ADF81A30BDF81A302380ADF81A6044
:10527000BDF81A30ADF81A30BDF81A302380022379
:10528000ADF81A30BDF81A30ADF81A30BDF81A3042
:105290002380ADF81A60BDF81A30ADF81A30BDF8A9
:1052A0001A3023802923ADF81A30BDF81A30ADF832
:1052B0001A30BDF81A302380ADF81A60BDF81A30E4
:1052C000ADF81A30BDF81A3023803C23ADF81A30FF
:1052D000BDF81A30ADF81A30BDF81A302380ADF899
:1052E0001A60BDF81A30ADF81A30BDF81A302380B4
:1052F0004B23ADF81A30BDF81A30ADF81A30BDF8AE
:105300001A302380ADF81A60BDF81A30ADF81A30A3
:10531000BDF81A3023805D23ADF81A30BDF81A307D
:10532000ADF81A30BDF81A302380ADF81A60BDF818
:105330001A30ADF81A30BDF81A302380ADF81AB023
:10534000BDF81A304FF0550BADF81A30BDF81A30D1
:105350002380ADF81A60BDF81A30ADF81A30BDF8E8
:105360001A302380ADF81AA0BDF81A304FF0560A53
:10537000ADF81A30BDF81A302380ADF81A60BDF8C8
:105380001A30ADF81A30BDF81A302380ADF81A8003
:10539000BDF81A304FF07708ADF81A30BDF81A3062
:1053A0002380ADF81A60BDF81A30ADF81A30BDF898
:1053B0001A302380ADF81A70BDF81A304427ADF8C2
:1053C0001A30BDF81A302380ADF81A60BDF81A30D3
:1053D000ADF81A30BDF81A302380ADF81A50BDF878
:1053E0001A304525ADF81A30BDF81A302380ADF8D3
:1053F0001A60BDF81A30ADF81A30BDF81A302380A3
:10540000ADF81A00BDF81A007623ADF81A00BDF801
:105410001A002080ADF81A60BDF81A00ADF81A0025
:10542000BDF81A002080ADF81AE0BDF81A004FF060
:10543000BB0EADF81A00BDF81A002080ADF81A6056
:10544000BDF81A00ADF81A00BDF81A002080ADF8BA
:105450001AC0BDF81A004FF0110CADF81A00BDF8D3
:105460001A002080ADF81A60BDF81A00ADF81A00D5
:10547000BDF81A002080ADF81A20BDF81A00662287
:10548000ADF81A00BDF81A002080ADF81A60BDF81A
:105490001A00ADF81A00BDF81A002080DC20ADF823
:1054A0001A00BDF81A00ADF81A00BDF81A002080E5
:1054B000ADF81A60BDF81A00ADF81A00BDF81A0070
:1054C0002080ADF81A10BDF81A009921ADF81A0025
:1054D000BDF81A002080ADF81A60BDF81A00ADF8CA
:1054E0001A00BDF81A002080E620ADF81A00BDF8B9
:1054F0001A00ADF81A00BDF81A0024F8020CADF835
:105500001AC0BDF81A00ADF81A00BDF81A002080C4
:10551000ADF81A60BDF81A00ADF81A00BDF81A000F
:1055200020803420ADF81A00BDF81A00ADF81A003A
:10553000BDF81A002080ADF81A60BDF81A00ADF869
:105540001A00BDF81A002080ADF81AA0BDF81A00A4
:10555000ADF81A00BDF81A002080ADF81A60BDF849
:105560001A00ADF81A00BDF81A002080ADF81A3004
:10557000BDF81A00ADF81A00BDF81A002080ADF889
:105580001A60BDF81A00ADF81A00BDF81A002080A4
:10559000ADF81A80BDF81A00ADF81A00BDF81A006F
:1055A0002080ADF81A60BDF81A00ADF81A00BDF8F9
:1055B0001A002080ADF81A20BDF81A00ADF81A00C4
:1055C000BDF81A002080ADF81A60BDF81A00ADF8D9
:1055D0001A00BDF81A0020808820ADF81A00BDF826
:1055E0001A00ADF81A00BDF81A002080ADF81A6054
:1055F000BDF81A00ADF81A00BDF81A002080ADF809
:105600001A10BDF81A00ADF81A00BDF81A00208073
:10561000ADF81A60BDF81A00ADF81A00BDF81A000E
:105620002080ADF81AE0BDF81A00ADF81A00BDF8F8
:105630001A002080ADF81A60BDF81A00ADF81A0003
:10564000BDF81A002080ADF81A10BDF81A00ADF8A8
:105650001A00BDF81A002080ADF81A60BDF81A00D3
:10566000ADF81A00BDF81A002080ADF81A20BDF878
:105670001A00ADF81A00BDF81A002080ADF81A60C3
:10568000BDF81A00ADF81A00BDF81A002080ADF878
:105690001AB0BDF81A00ADF81A00BDF81A00208043
:1056A000ADF81A60BDF81A00ADF81A00BDF81A007E
:1056B0002080ADF81AB0BDF81A00ADF81A00BDF898
:1056C0001A002080ADF81A60BDF81A00ADF81A0073
:1056D000BDF81A002080ADF81A50BDF81A00ADF8D8
:1056E0001A00BDF81A002080ADF81A60BDF81A0043
:1056F000ADF81A00BDF81A0020804320ADF81A005A
:10570000BDF81A00ADF81A00BDF81A002080ADF8F7
:105710001A60BDF81A00ADF81A00BDF81A00208012
:10572000ADF81A70BDF81A00ADF81A00BDF81A00ED
:105730002080ADF81A60BDF81A00ADF81A00BDF867
:105740001A002080E720ADF81A00BDF81A00ADF865
:105750001A00BDF81A0024F8020C3220ADF81A0025
:10576000BDF81A00ADF81A00BDF81A002080ADF897
:105770001A60BDF81A00ADF81A00BDF81A002080B2
:10578000ADF81AB0BDF81A00ADF81A00BDF81A004D
:105790002080ADF81A60BDF81A00ADF81A00BDF807
:1057A0001A002080ADF81A30BDF81A00ADF81A00C2
:1057B000BDF81A002080ADF81A60BDF81A00ADF8E7
:1057C0001A00BDF81A002080ADF81A20BDF81A00A2
:1057D000ADF81A00BDF81A002080ADF81A60BDF8C7
:1057E0001A00ADF81A00BDF81A0020806720ADF845
:1057F0001A00BDF81A30ADF81A30BDF81A302380FF
:10580000ADF81A60BDF81A30ADF81A30BDF81A308C
:105810002380ADF81A00BDF81A00ADF81A00BDF8E3
:105820001A002080ADF81A60BDF81A00ADF81A0011
:10583000BDF81A0020808720ADF81A00BDF81A3094
:10584000ADF81A30BDF81A302380ADF81A60BDF8F3
:105850001A30ADF81A30BDF81A302380ADF81A109E
:10586000BDF81A30ADF81A30BDF81A302380ADF803
:105870001A60BDF81A30ADF81A30BDF81A3023801E
:10588000ADF81AE0BDF81A30ADF81A30BDF81A308C
:105890002380ADF81A60BDF81A30ADF81A30BDF8A3
:1058A0001A302380ADF81A10BDF81A30ADF81A304E
:1058B000BDF81A302380ADF81A60BDF81A30ADF883
:1058C0001A30BDF81A302380ADF81A80BDF81A30AE
:1058D000ADF81A30BDF81A302380ADF81A60BDF863
:1058E0001A30ADF81A30BDF81A302380ADF81A70AE
:1058F000BDF81A302927ADF81A30BDF81A302380C8
:10590000ADF81A60BDF81A30ADF81A30BDF81A308B
:105910002380ADF81AA0BDF81A30ADF81A30BDF8E2
:105920001A302380ADF81A60BDF81A30ADF81A307D
:10593000BDF81A3023802323ADF81A30BDF81A3091
:10594000ADF81A30BDF81A302380ADF81A60BDF8F2
:105950001A30ADF81A30BDF81A3023803323ADF871
:105960001A30BDF81A30ADF81A30BDF81A3023805D
:10597000ADF81A60BDF81A30ADF81A30BDF81A301B
:105980002380ADF81A50BDF81A30ADF81A30BDF8C2
:105990001A302380ADF81A60BDF81A30ADF81A300D
:1059A000BDF81A302380E823ADF81A30BDF81A305C
:1059B000ADF81A30BDF81A3024F8023CADF81A6080
:1059C000BDF81A30ADF81A30BDF81A302380ADF8A2
:1059D0001A60BDF81A30ADF81A30BDF81A302380BD
:1059E000ADF81A10BDF81A30ADF81A30BDF81A30FB
:1059F0002380ADF81A60BDF81A30ADF81A30BDF842
:105A00001A302380ADF81A00BDF81A008823ADF8CB
:105A10001A00BDF81A002080ADF81A60BDF81A000F
:105A2000ADF81A00BDF81A002080ADF81A30BDF8A4
:105A30001A00ADF81A00BDF81A002080ADF81A60FF
:105A4000BDF81A00ADF81A00BDF81A002080ADF8B4
:105A50001A80BDF81A00ADF81A00BDF81A002080AF
:105A6000ADF81A60BDF81A00ADF81A00BDF81A00BA
:105A70002080ADF81A20BDF81A00ADF81A00BDF864
:105A80001A002080ADF81A60BDF81A00ADF81A00AF
:105A9000BDF81A002080ADF81A30BDF81A00AA230C
:105AA000ADF81A00BDF81A002080ADF81A60BDF8F4
:105AB0001A00ADF81A00BDF81A002080ADF81A30AF
:105AC000BDF81A00ADF81A00BDF81A002080ADF834
:105AD0001A60BDF81A00ADF81A00BDF81A0020804F
